{
	"data": {
		"bytecode": {
			"linkReferences": {},
			"object": "6080604052348015600e575f80fd5b506114bf8061001c5f395ff3fe60806040526004361061006f575f3560e01c8063155dd5ee1161004d578063155dd5ee1461011857806371be2e4a146101405780638627df461461016a578063b99d6e29146101865761006f565b80630374ab0b1461007357806309c797351461009b5780630b791430146100d7575b5f80fd5b34801561007e575f80fd5b50610099600480360381019061009491906109c1565b6101c2565b005b3480156100a6575f80fd5b506100c160048036038101906100bc9190610a9b565b610380565b6040516100ce9190610ae8565b60405180910390f35b3480156100e2575f80fd5b506100fd60048036038101906100f89190610b01565b6103d6565b60405161010f96959493929190610b9b565b60405180910390f35b348015610123575f80fd5b5061013e60048036038101906101399190610b01565b6104b2565b005b34801561014b575f80fd5b5061015461061d565b6040516101619190610ae8565b60405180910390f35b610184600480360381019061017f9190610c01565b610623565b005b348015610191575f80fd5b506101ac60048036038101906101a79190610a9b565b610821565b6040516101b99190610ae8565b60405180910390f35b428311610204576040517f08c379a00000000000000000000000000000000000000000000000000000000081526004016101fb90610caf565b60405180910390fd5b5f8111610246576040517f08c379a000000000000000000000000000000000000000000000000000000000815260040161023d90610d3d565b60405180910390fd5b60015f81548092919061025890610d88565b91905055506040518060c001604052808581526020018481526020018381526020018281526020015f81526020013373ffffffffffffffffffffffffffffffffffffffff168152505f8060015481526020019081526020015f205f820151815f0190816102c59190610fc9565b506020820151816001015560408201518160020155606082015181600301556080820151816004015560a0820151816005015f6101000a81548173ffffffffffffffffffffffffffffffffffffffff021916908373ffffffffffffffffffffffffffffffffffffffff1602179055509050507fca468f9dfa5e8e69f7a91c44f5cba1020284731b0d80eeddfa11d8db501f246b600154858585853360405161037296959493929190611098565b60405180910390a150505050565b5f60025f8481526020019081526020015f205f8373ffffffffffffffffffffffffffffffffffffffff1673ffffffffffffffffffffffffffffffffffffffff1681526020019081526020015f2054905092915050565b5f602052805f5260405f205f91509050805f0180546103f490610dfc565b80601f016020809104026020016040519081016040528092919081815260200182805461042090610dfc565b801561046b5780601f106104425761010080835404028352916020019161046b565b820191905f5260205f20905b81548152906001019060200180831161044e57829003601f168201915b505050505090806001015490806002015490806003015490806004015490806005015f9054906101000a900473ffffffffffffffffffffffffffffffffffffffff16905086565b803373ffffffffffffffffffffffffffffffffffffffff165f808381526020019081526020015f206005015f9054906101000a900473ffffffffffffffffffffffffffffffffffffffff1673ffffffffffffffffffffffffffffffffffffffff1614610553576040517f08c379a000000000000000000000000000000000000000000000000000000000815260040161054a9061116e565b60405180910390fd5b5f805f8481526020019081526020015f209050428160010154106105ac576040517f08c379a00000000000000000000000000000000000000000000000000000000081526004016105a3906111d6565b60405180910390fd5b5f479050816005015f9054906101000a900473ffffffffffffffffffffffffffffffffffffffff1673ffffffffffffffffffffffffffffffffffffffff166108fc8290811502906040515f60405180830381858888f19350505050158015610616573d5f803e3d5ffd5b5050505050565b60015481565b5f805f8481526020019081526020015f2090504281600101541161067c576040517f08c379a00000000000000000000000000000000000000000000000000000000081526004016106739061123e565b60405180910390fd5b5f82116106be576040517f08c379a00000000000000000000000000000000000000000000000000000000081526004016106b5906112cc565b60405180910390fd5b80600301548282600401546106d391906112ea565b1115610714576040517f08c379a000000000000000000000000000000000000000000000000000000000815260040161070b9061138d565b60405180910390fd5b80600201548261072491906113ab565b3414610765576040517f08c379a000000000000000000000000000000000000000000000000000000000815260040161075c90611436565b60405180910390fd5b81816004015f82825461077891906112ea565b925050819055508160025f8581526020019081526020015f205f3373ffffffffffffffffffffffffffffffffffffffff1673ffffffffffffffffffffffffffffffffffffffff1681526020019081526020015f205f8282546107da91906112ea565b925050819055507fdbaaf4c87ce30816c961a81d110622a3227ede77953d4383d514ff88ab2e0fd383338460405161081493929190611454565b60405180910390a1505050565b6002602052815f5260405f20602052805f5260405f205f91509150505481565b5f604051905090565b5f80fd5b5f80fd5b5f80fd5b5f80fd5b5f601f19601f8301169050919050565b7f4e487b71000000000000000000000000000000000000000000000000000000005f52604160045260245ffd5b6108a08261085a565b810181811067ffffffffffffffff821117156108bf576108be61086a565b5b80604052505050565b5f6108d1610841565b90506108dd8282610897565b919050565b5f67ffffffffffffffff8211156108fc576108fb61086a565b5b6109058261085a565b9050602081019050919050565b828183375f83830152505050565b5f61093261092d846108e2565b6108c8565b90508281526020810184848401111561094e5761094d610856565b5b610959848285610912565b509392505050565b5f82601f83011261097557610974610852565b5b8135610985848260208601610920565b91505092915050565b5f819050919050565b6109a08161098e565b81146109aa575f80fd5b50565b5f813590506109bb81610997565b92915050565b5f805f80608085870312156109d9576109d861084a565b5b5f85013567ffffffffffffffff8111156109f6576109f561084e565b5b610a0287828801610961565b9450506020610a13878288016109ad565b9350506040610a24878288016109ad565b9250506060610a35878288016109ad565b91505092959194509250565b5f73ffffffffffffffffffffffffffffffffffffffff82169050919050565b5f610a6a82610a41565b9050919050565b610a7a81610a60565b8114610a84575f80fd5b50565b5f81359050610a9581610a71565b92915050565b5f8060408385031215610ab157610ab061084a565b5b5f610abe858286016109ad565b9250506020610acf85828601610a87565b9150509250929050565b610ae28161098e565b82525050565b5f602082019050610afb5f830184610ad9565b92915050565b5f60208284031215610b1657610b1561084a565b5b5f610b23848285016109ad565b91505092915050565b5f81519050919050565b5f82825260208201905092915050565b8281835e5f83830152505050565b5f610b5e82610b2c565b610b688185610b36565b9350610b78818560208601610b46565b610b818161085a565b840191505092915050565b610b9581610a60565b82525050565b5f60c0820190508181035f830152610bb38189610b54565b9050610bc26020830188610ad9565b610bcf6040830187610ad9565b610bdc6060830186610ad9565b610be96080830185610ad9565b610bf660a0830184610b8c565b979650505050505050565b5f8060408385031215610c1757610c1661084a565b5b5f610c24858286016109ad565b9250506020610c35858286016109ad565b9150509250929050565b7f44617461206576656e696d656e74756c756920747265627569652073612066695f8201527f6520696e20766969746f72000000000000000000000000000000000000000000602082015250565b5f610c99602b83610b36565b9150610ca482610c3f565b604082019050919050565b5f6020820190508181035f830152610cc681610c8d565b9050919050565b7f54726562756965207361206578697374652063656c20707574696e20756e20625f8201527f696c657420646973706f6e6962696c0000000000000000000000000000000000602082015250565b5f610d27602f83610b36565b9150610d3282610ccd565b604082019050919050565b5f6020820190508181035f830152610d5481610d1b565b9050919050565b7f4e487b71000000000000000000000000000000000000000000000000000000005f52601160045260245ffd5b5f610d928261098e565b91507fffffffffffffffffffffffffffffffffffffffffffffffffffffffffffffffff8203610dc457610dc3610d5b565b5b600182019050919050565b7f4e487b71000000000000000000000000000000000000000000000000000000005f52602260045260245ffd5b5f6002820490506001821680610e1357607f821691505b602082108103610e2657610e25610dcf565b5b50919050565b5f819050815f5260205f209050919050565b5f6020601f8301049050919050565b5f82821b905092915050565b5f60088302610e887fffffffffffffffffffffffffffffffffffffffffffffffffffffffffffffffff82610e4d565b610e928683610e4d565b95508019841693508086168417925050509392505050565b5f819050919050565b5f610ecd610ec8610ec38461098e565b610eaa565b61098e565b9050919050565b5f819050919050565b610ee683610eb3565b610efa610ef282610ed4565b848454610e59565b825550505050565b5f90565b610f0e610f02565b610f19818484610edd565b505050565b5b81811015610f3c57610f315f82610f06565b600181019050610f1f565b5050565b601f821115610f8157610f5281610e2c565b610f5b84610e3e565b81016020851015610f6a578190505b610f7e610f7685610e3e565b830182610f1e565b50505b505050565b5f82821c905092915050565b5f610fa15f1984600802610f86565b1980831691505092915050565b5f610fb98383610f92565b9150826002028217905092915050565b610fd282610b2c565b67ffffffffffffffff811115610feb57610fea61086a565b5b610ff58254610dfc565b611000828285610f40565b5f60209050601f831160018114611031575f841561101f578287015190505b6110298582610fae565b865550611090565b601f19841661103f86610e2c565b5f5b8281101561106657848901518255600182019150602085019450602081019050611041565b86831015611083578489015161107f601f891682610f92565b8355505b6001600288020188555050505b505050505050565b5f60c0820190506110ab5f830189610ad9565b81810360208301526110bd8188610b54565b90506110cc6040830187610ad9565b6110d96060830186610ad9565b6110e66080830185610ad9565b6110f360a0830184610b8c565b979650505050505050565b7f446f6172206f7267616e697a61746f72756c20706f61746520657865637574615f8201527f20616365617374612066756e6374696500000000000000000000000000000000602082015250565b5f611158603083610b36565b9150611163826110fe565b604082019050919050565b5f6020820190508181035f8301526111858161114c565b9050919050565b7f4576656e696d656e74756c206e7520612061767574206c6f6320696e636100005f82015250565b5f6111c0601e83610b36565b91506111cb8261118c565b602082019050919050565b5f6020820190508181035f8301526111ed816111b4565b9050919050565b7f4576656e696d656e74756c20612061767574206c6f632064656a6100000000005f82015250565b5f611228601b83610b36565b9150611233826111f4565b602082019050919050565b5f6020820190508181035f8301526112558161121c565b9050919050565b7f547265627569652073612063756d706572692063656c20707574696e20756e205f8201527f62696c6574000000000000000000000000000000000000000000000000000000602082015250565b5f6112b6602583610b36565b91506112c18261125c565b604082019050919050565b5f6020820190508181035f8301526112e3816112aa565b9050919050565b5f6112f48261098e565b91506112ff8361098e565b925082820190508082111561131757611316610d5b565b5b92915050565b7f4e752073756e7420737566696369656e74652062696c65746520646973706f6e5f8201527f6962696c65000000000000000000000000000000000000000000000000000000602082015250565b5f611377602583610b36565b91506113828261131d565b604082019050919050565b5f6020820190508181035f8301526113a48161136b565b9050919050565b5f6113b58261098e565b91506113c08361098e565b92508282026113ce8161098e565b915082820484148315176113e5576113e4610d5b565b5b5092915050565b7f56616c6f61726561207472696d697361206e75206573746520636f72656374615f82015250565b5f611420602083610b36565b915061142b826113ec565b602082019050919050565b5f6020820190508181035f83015261144d81611414565b9050919050565b5f6060820190506114675f830186610ad9565b6114746020830185610b8c565b6114816040830184610ad9565b94935050505056fea26469706673582212202567f3a2e2ebdbcd535bd2e00c95ed8a4c911367d30d9efe48852d38c5b5551a64736f6c634300081a0033",
			"opcodes": "PUSH1 0x80 PUSH1 0x40 MSTORE CALLVALUE DUP1 ISZERO PUSH1 0xE JUMPI PUSH0 DUP1 REVERT JUMPDEST POP PUSH2 0x14BF DUP1 PUSH2 0x1C PUSH0 CODECOPY PUSH0 RETURN INVALID PUSH1 0x80 PUSH1 0x40 MSTORE PUSH1 0x4 CALLDATASIZE LT PUSH2 0x6F JUMPI PUSH0 CALLDATALOAD PUSH1 0xE0 SHR DUP1 PUSH4 0x155DD5EE GT PUSH2 0x4D JUMPI DUP1 PUSH4 0x155DD5EE EQ PUSH2 0x118 JUMPI DUP1 PUSH4 0x71BE2E4A EQ PUSH2 0x140 JUMPI DUP1 PUSH4 0x8627DF46 EQ PUSH2 0x16A JUMPI DUP1 PUSH4 0xB99D6E29 EQ PUSH2 0x186 JUMPI PUSH2 0x6F JUMP JUMPDEST DUP1 PUSH4 0x374AB0B EQ PUSH2 0x73 JUMPI DUP1 PUSH4 0x9C79735 EQ PUSH2 0x9B JUMPI DUP1 PUSH4 0xB791430 EQ PUSH2 0xD7 JUMPI JUMPDEST PUSH0 DUP1 REVERT JUMPDEST CALLVALUE DUP1 ISZERO PUSH2 0x7E JUMPI PUSH0 DUP1 REVERT JUMPDEST POP PUSH2 0x99 PUSH1 0x4 DUP1 CALLDATASIZE SUB DUP2 ADD SWAP1 PUSH2 0x94 SWAP2 SWAP1 PUSH2 0x9C1 JUMP JUMPDEST PUSH2 0x1C2 JUMP JUMPDEST STOP JUMPDEST CALLVALUE DUP1 ISZERO PUSH2 0xA6 JUMPI PUSH0 DUP1 REVERT JUMPDEST POP PUSH2 0xC1 PUSH1 0x4 DUP1 CALLDATASIZE SUB DUP2 ADD SWAP1 PUSH2 0xBC SWAP2 SWAP1 PUSH2 0xA9B JUMP JUMPDEST PUSH2 0x380 JUMP JUMPDEST PUSH1 0x40 MLOAD PUSH2 0xCE SWAP2 SWAP1 PUSH2 0xAE8 JUMP JUMPDEST PUSH1 0x40 MLOAD DUP1 SWAP2 SUB SWAP1 RETURN JUMPDEST CALLVALUE DUP1 ISZERO PUSH2 0xE2 JUMPI PUSH0 DUP1 REVERT JUMPDEST POP PUSH2 0xFD PUSH1 0x4 DUP1 CALLDATASIZE SUB DUP2 ADD SWAP1 PUSH2 0xF8 SWAP2 SWAP1 PUSH2 0xB01 JUMP JUMPDEST PUSH2 0x3D6 JUMP JUMPDEST PUSH1 0x40 MLOAD PUSH2 0x10F SWAP7 SWAP6 SWAP5 SWAP4 SWAP3 SWAP2 SWAP1 PUSH2 0xB9B JUMP JUMPDEST PUSH1 0x40 MLOAD DUP1 SWAP2 SUB SWAP1 RETURN JUMPDEST CALLVALUE DUP1 ISZERO PUSH2 0x123 JUMPI PUSH0 DUP1 REVERT JUMPDEST POP PUSH2 0x13E PUSH1 0x4 DUP1 CALLDATASIZE SUB DUP2 ADD SWAP1 PUSH2 0x139 SWAP2 SWAP1 PUSH2 0xB01 JUMP JUMPDEST PUSH2 0x4B2 JUMP JUMPDEST STOP JUMPDEST CALLVALUE DUP1 ISZERO PUSH2 0x14B JUMPI PUSH0 DUP1 REVERT JUMPDEST POP PUSH2 0x154 PUSH2 0x61D JUMP JUMPDEST PUSH1 0x40 MLOAD PUSH2 0x161 SWAP2 SWAP1 PUSH2 0xAE8 JUMP JUMPDEST PUSH1 0x40 MLOAD DUP1 SWAP2 SUB SWAP1 RETURN JUMPDEST PUSH2 0x184 PUSH1 0x4 DUP1 CALLDATASIZE SUB DUP2 ADD SWAP1 PUSH2 0x17F SWAP2 SWAP1 PUSH2 0xC01 JUMP JUMPDEST PUSH2 0x623 JUMP JUMPDEST STOP JUMPDEST CALLVALUE DUP1 ISZERO PUSH2 0x191 JUMPI PUSH0 DUP1 REVERT JUMPDEST POP PUSH2 0x1AC PUSH1 0x4 DUP1 CALLDATASIZE SUB DUP2 ADD SWAP1 PUSH2 0x1A7 SWAP2 SWAP1 PUSH2 0xA9B JUMP JUMPDEST PUSH2 0x821 JUMP JUMPDEST PUSH1 0x40 MLOAD PUSH2 0x1B9 SWAP2 SWAP1 PUSH2 0xAE8 JUMP JUMPDEST PUSH1 0x40 MLOAD DUP1 SWAP2 SUB SWAP1 RETURN JUMPDEST TIMESTAMP DUP4 GT PUSH2 0x204 JUMPI PUSH1 0x40 MLOAD PUSH32 0x8C379A000000000000000000000000000000000000000000000000000000000 DUP2 MSTORE PUSH1 0x4 ADD PUSH2 0x1FB SWAP1 PUSH2 0xCAF JUMP JUMPDEST PUSH1 0x40 MLOAD DUP1 SWAP2 SUB SWAP1 REVERT JUMPDEST PUSH0 DUP2 GT PUSH2 0x246 JUMPI PUSH1 0x40 MLOAD PUSH32 0x8C379A000000000000000000000000000000000000000000000000000000000 DUP2 MSTORE PUSH1 0x4 ADD PUSH2 0x23D SWAP1 PUSH2 0xD3D JUMP JUMPDEST PUSH1 0x40 MLOAD DUP1 SWAP2 SUB SWAP1 REVERT JUMPDEST PUSH1 0x1 PUSH0 DUP2 SLOAD DUP1 SWAP3 SWAP2 SWAP1 PUSH2 0x258 SWAP1 PUSH2 0xD88 JUMP JUMPDEST SWAP2 SWAP1 POP SSTORE POP PUSH1 0x40 MLOAD DUP1 PUSH1 0xC0 ADD PUSH1 0x40 MSTORE DUP1 DUP6 DUP2 MSTORE PUSH1 0x20 ADD DUP5 DUP2 MSTORE PUSH1 0x20 ADD DUP4 DUP2 MSTORE PUSH1 0x20 ADD DUP3 DUP2 MSTORE PUSH1 0x20 ADD PUSH0 DUP2 MSTORE PUSH1 0x20 ADD CALLER PUSH20 0xFFFFFFFFFFFFFFFFFFFFFFFFFFFFFFFFFFFFFFFF AND DUP2 MSTORE POP PUSH0 DUP1 PUSH1 0x1 SLOAD DUP2 MSTORE PUSH1 0x20 ADD SWAP1 DUP2 MSTORE PUSH1 0x20 ADD PUSH0 KECCAK256 PUSH0 DUP3 ADD MLOAD DUP2 PUSH0 ADD SWAP1 DUP2 PUSH2 0x2C5 SWAP2 SWAP1 PUSH2 0xFC9 JUMP JUMPDEST POP PUSH1 0x20 DUP3 ADD MLOAD DUP2 PUSH1 0x1 ADD SSTORE PUSH1 0x40 DUP3 ADD MLOAD DUP2 PUSH1 0x2 ADD SSTORE PUSH1 0x60 DUP3 ADD MLOAD DUP2 PUSH1 0x3 ADD SSTORE PUSH1 0x80 DUP3 ADD MLOAD DUP2 PUSH1 0x4 ADD SSTORE PUSH1 0xA0 DUP3 ADD MLOAD DUP2 PUSH1 0x5 ADD PUSH0 PUSH2 0x100 EXP DUP2 SLOAD DUP2 PUSH20 0xFFFFFFFFFFFFFFFFFFFFFFFFFFFFFFFFFFFFFFFF MUL NOT AND SWAP1 DUP4 PUSH20 0xFFFFFFFFFFFFFFFFFFFFFFFFFFFFFFFFFFFFFFFF AND MUL OR SWAP1 SSTORE POP SWAP1 POP POP PUSH32 0xCA468F9DFA5E8E69F7A91C44F5CBA1020284731B0D80EEDDFA11D8DB501F246B PUSH1 0x1 SLOAD DUP6 DUP6 DUP6 DUP6 CALLER PUSH1 0x40 MLOAD PUSH2 0x372 SWAP7 SWAP6 SWAP5 SWAP4 SWAP3 SWAP2 SWAP1 PUSH2 0x1098 JUMP JUMPDEST PUSH1 0x40 MLOAD DUP1 SWAP2 SUB SWAP1 LOG1 POP POP POP POP JUMP JUMPDEST PUSH0 PUSH1 0x2 PUSH0 DUP5 DUP2 MSTORE PUSH1 0x20 ADD SWAP1 DUP2 MSTORE PUSH1 0x20 ADD PUSH0 KECCAK256 PUSH0 DUP4 PUSH20 0xFFFFFFFFFFFFFFFFFFFFFFFFFFFFFFFFFFFFFFFF AND PUSH20 0xFFFFFFFFFFFFFFFFFFFFFFFFFFFFFFFFFFFFFFFF AND DUP2 MSTORE PUSH1 0x20 ADD SWAP1 DUP2 MSTORE PUSH1 0x20 ADD PUSH0 KECCAK256 SLOAD SWAP1 POP SWAP3 SWAP2 POP POP JUMP JUMPDEST PUSH0 PUSH1 0x20 MSTORE DUP1 PUSH0 MSTORE PUSH1 0x40 PUSH0 KECCAK256 PUSH0 SWAP2 POP SWAP1 POP DUP1 PUSH0 ADD DUP1 SLOAD PUSH2 0x3F4 SWAP1 PUSH2 0xDFC JUMP JUMPDEST DUP1 PUSH1 0x1F ADD PUSH1 0x20 DUP1 SWAP2 DIV MUL PUSH1 0x20 ADD PUSH1 0x40 MLOAD SWAP1 DUP2 ADD PUSH1 0x40 MSTORE DUP1 SWAP3 SWAP2 SWAP1 DUP2 DUP2 MSTORE PUSH1 0x20 ADD DUP3 DUP1 SLOAD PUSH2 0x420 SWAP1 PUSH2 0xDFC JUMP JUMPDEST DUP1 ISZERO PUSH2 0x46B JUMPI DUP1 PUSH1 0x1F LT PUSH2 0x442 JUMPI PUSH2 0x100 DUP1 DUP4 SLOAD DIV MUL DUP4 MSTORE SWAP2 PUSH1 0x20 ADD SWAP2 PUSH2 0x46B JUMP JUMPDEST DUP3 ADD SWAP2 SWAP1 PUSH0 MSTORE PUSH1 0x20 PUSH0 KECCAK256 SWAP1 JUMPDEST DUP2 SLOAD DUP2 MSTORE SWAP1 PUSH1 0x1 ADD SWAP1 PUSH1 0x20 ADD DUP1 DUP4 GT PUSH2 0x44E JUMPI DUP3 SWAP1 SUB PUSH1 0x1F AND DUP3 ADD SWAP2 JUMPDEST POP POP POP POP POP SWAP1 DUP1 PUSH1 0x1 ADD SLOAD SWAP1 DUP1 PUSH1 0x2 ADD SLOAD SWAP1 DUP1 PUSH1 0x3 ADD SLOAD SWAP1 DUP1 PUSH1 0x4 ADD SLOAD SWAP1 DUP1 PUSH1 0x5 ADD PUSH0 SWAP1 SLOAD SWAP1 PUSH2 0x100 EXP SWAP1 DIV PUSH20 0xFFFFFFFFFFFFFFFFFFFFFFFFFFFFFFFFFFFFFFFF AND SWAP1 POP DUP7 JUMP JUMPDEST DUP1 CALLER PUSH20 0xFFFFFFFFFFFFFFFFFFFFFFFFFFFFFFFFFFFFFFFF AND PUSH0 DUP1 DUP4 DUP2 MSTORE PUSH1 0x20 ADD SWAP1 DUP2 MSTORE PUSH1 0x20 ADD PUSH0 KECCAK256 PUSH1 0x5 ADD PUSH0 SWAP1 SLOAD SWAP1 PUSH2 0x100 EXP SWAP1 DIV PUSH20 0xFFFFFFFFFFFFFFFFFFFFFFFFFFFFFFFFFFFFFFFF AND PUSH20 0xFFFFFFFFFFFFFFFFFFFFFFFFFFFFFFFFFFFFFFFF AND EQ PUSH2 0x553 JUMPI PUSH1 0x40 MLOAD PUSH32 0x8C379A000000000000000000000000000000000000000000000000000000000 DUP2 MSTORE PUSH1 0x4 ADD PUSH2 0x54A SWAP1 PUSH2 0x116E JUMP JUMPDEST PUSH1 0x40 MLOAD DUP1 SWAP2 SUB SWAP1 REVERT JUMPDEST PUSH0 DUP1 PUSH0 DUP5 DUP2 MSTORE PUSH1 0x20 ADD SWAP1 DUP2 MSTORE PUSH1 0x20 ADD PUSH0 KECCAK256 SWAP1 POP TIMESTAMP DUP2 PUSH1 0x1 ADD SLOAD LT PUSH2 0x5AC JUMPI PUSH1 0x40 MLOAD PUSH32 0x8C379A000000000000000000000000000000000000000000000000000000000 DUP2 MSTORE PUSH1 0x4 ADD PUSH2 0x5A3 SWAP1 PUSH2 0x11D6 JUMP JUMPDEST PUSH1 0x40 MLOAD DUP1 SWAP2 SUB SWAP1 REVERT JUMPDEST PUSH0 SELFBALANCE SWAP1 POP DUP2 PUSH1 0x5 ADD PUSH0 SWAP1 SLOAD SWAP1 PUSH2 0x100 EXP SWAP1 DIV PUSH20 0xFFFFFFFFFFFFFFFFFFFFFFFFFFFFFFFFFFFFFFFF AND PUSH20 0xFFFFFFFFFFFFFFFFFFFFFFFFFFFFFFFFFFFFFFFF AND PUSH2 0x8FC DUP3 SWAP1 DUP2 ISZERO MUL SWAP1 PUSH1 0x40 MLOAD PUSH0 PUSH1 0x40 MLOAD DUP1 DUP4 SUB DUP2 DUP6 DUP9 DUP9 CALL SWAP4 POP POP POP POP ISZERO DUP1 ISZERO PUSH2 0x616 JUMPI RETURNDATASIZE PUSH0 DUP1 RETURNDATACOPY RETURNDATASIZE PUSH0 REVERT JUMPDEST POP POP POP POP POP JUMP JUMPDEST PUSH1 0x1 SLOAD DUP2 JUMP JUMPDEST PUSH0 DUP1 PUSH0 DUP5 DUP2 MSTORE PUSH1 0x20 ADD SWAP1 DUP2 MSTORE PUSH1 0x20 ADD PUSH0 KECCAK256 SWAP1 POP TIMESTAMP DUP2 PUSH1 0x1 ADD SLOAD GT PUSH2 0x67C JUMPI PUSH1 0x40 MLOAD PUSH32 0x8C379A000000000000000000000000000000000000000000000000000000000 DUP2 MSTORE PUSH1 0x4 ADD PUSH2 0x673 SWAP1 PUSH2 0x123E JUMP JUMPDEST PUSH1 0x40 MLOAD DUP1 SWAP2 SUB SWAP1 REVERT JUMPDEST PUSH0 DUP3 GT PUSH2 0x6BE JUMPI PUSH1 0x40 MLOAD PUSH32 0x8C379A000000000000000000000000000000000000000000000000000000000 DUP2 MSTORE PUSH1 0x4 ADD PUSH2 0x6B5 SWAP1 PUSH2 0x12CC JUMP JUMPDEST PUSH1 0x40 MLOAD DUP1 SWAP2 SUB SWAP1 REVERT JUMPDEST DUP1 PUSH1 0x3 ADD SLOAD DUP3 DUP3 PUSH1 0x4 ADD SLOAD PUSH2 0x6D3 SWAP2 SWAP1 PUSH2 0x12EA JUMP JUMPDEST GT ISZERO PUSH2 0x714 JUMPI PUSH1 0x40 MLOAD PUSH32 0x8C379A000000000000000000000000000000000000000000000000000000000 DUP2 MSTORE PUSH1 0x4 ADD PUSH2 0x70B SWAP1 PUSH2 0x138D JUMP JUMPDEST PUSH1 0x40 MLOAD DUP1 SWAP2 SUB SWAP1 REVERT JUMPDEST DUP1 PUSH1 0x2 ADD SLOAD DUP3 PUSH2 0x724 SWAP2 SWAP1 PUSH2 0x13AB JUMP JUMPDEST CALLVALUE EQ PUSH2 0x765 JUMPI PUSH1 0x40 MLOAD PUSH32 0x8C379A000000000000000000000000000000000000000000000000000000000 DUP2 MSTORE PUSH1 0x4 ADD PUSH2 0x75C SWAP1 PUSH2 0x1436 JUMP JUMPDEST PUSH1 0x40 MLOAD DUP1 SWAP2 SUB SWAP1 REVERT JUMPDEST DUP2 DUP2 PUSH1 0x4 ADD PUSH0 DUP3 DUP3 SLOAD PUSH2 0x778 SWAP2 SWAP1 PUSH2 0x12EA JUMP JUMPDEST SWAP3 POP POP DUP2 SWAP1 SSTORE POP DUP2 PUSH1 0x2 PUSH0 DUP6 DUP2 MSTORE PUSH1 0x20 ADD SWAP1 DUP2 MSTORE PUSH1 0x20 ADD PUSH0 KECCAK256 PUSH0 CALLER PUSH20 0xFFFFFFFFFFFFFFFFFFFFFFFFFFFFFFFFFFFFFFFF AND PUSH20 0xFFFFFFFFFFFFFFFFFFFFFFFFFFFFFFFFFFFFFFFF AND DUP2 MSTORE PUSH1 0x20 ADD SWAP1 DUP2 MSTORE PUSH1 0x20 ADD PUSH0 KECCAK256 PUSH0 DUP3 DUP3 SLOAD PUSH2 0x7DA SWAP2 SWAP1 PUSH2 0x12EA JUMP JUMPDEST SWAP3 POP POP DUP2 SWAP1 SSTORE POP PUSH32 0xDBAAF4C87CE30816C961A81D110622A3227EDE77953D4383D514FF88AB2E0FD3 DUP4 CALLER DUP5 PUSH1 0x40 MLOAD PUSH2 0x814 SWAP4 SWAP3 SWAP2 SWAP1 PUSH2 0x1454 JUMP JUMPDEST PUSH1 0x40 MLOAD DUP1 SWAP2 SUB SWAP1 LOG1 POP POP POP JUMP JUMPDEST PUSH1 0x2 PUSH1 0x20 MSTORE DUP2 PUSH0 MSTORE PUSH1 0x40 PUSH0 KECCAK256 PUSH1 0x20 MSTORE DUP1 PUSH0 MSTORE PUSH1 0x40 PUSH0 KECCAK256 PUSH0 SWAP2 POP SWAP2 POP POP SLOAD DUP2 JUMP JUMPDEST PUSH0 PUSH1 0x40 MLOAD SWAP1 POP SWAP1 JUMP JUMPDEST PUSH0 DUP1 REVERT JUMPDEST PUSH0 DUP1 REVERT JUMPDEST PUSH0 DUP1 REVERT JUMPDEST PUSH0 DUP1 REVERT JUMPDEST PUSH0 PUSH1 0x1F NOT PUSH1 0x1F DUP4 ADD AND SWAP1 POP SWAP2 SWAP1 POP JUMP JUMPDEST PUSH32 0x4E487B7100000000000000000000000000000000000000000000000000000000 PUSH0 MSTORE PUSH1 0x41 PUSH1 0x4 MSTORE PUSH1 0x24 PUSH0 REVERT JUMPDEST PUSH2 0x8A0 DUP3 PUSH2 0x85A JUMP JUMPDEST DUP2 ADD DUP2 DUP2 LT PUSH8 0xFFFFFFFFFFFFFFFF DUP3 GT OR ISZERO PUSH2 0x8BF JUMPI PUSH2 0x8BE PUSH2 0x86A JUMP JUMPDEST JUMPDEST DUP1 PUSH1 0x40 MSTORE POP POP POP JUMP JUMPDEST PUSH0 PUSH2 0x8D1 PUSH2 0x841 JUMP JUMPDEST SWAP1 POP PUSH2 0x8DD DUP3 DUP3 PUSH2 0x897 JUMP JUMPDEST SWAP2 SWAP1 POP JUMP JUMPDEST PUSH0 PUSH8 0xFFFFFFFFFFFFFFFF DUP3 GT ISZERO PUSH2 0x8FC JUMPI PUSH2 0x8FB PUSH2 0x86A JUMP JUMPDEST JUMPDEST PUSH2 0x905 DUP3 PUSH2 0x85A JUMP JUMPDEST SWAP1 POP PUSH1 0x20 DUP2 ADD SWAP1 POP SWAP2 SWAP1 POP JUMP JUMPDEST DUP3 DUP2 DUP4 CALLDATACOPY PUSH0 DUP4 DUP4 ADD MSTORE POP POP POP JUMP JUMPDEST PUSH0 PUSH2 0x932 PUSH2 0x92D DUP5 PUSH2 0x8E2 JUMP JUMPDEST PUSH2 0x8C8 JUMP JUMPDEST SWAP1 POP DUP3 DUP2 MSTORE PUSH1 0x20 DUP2 ADD DUP5 DUP5 DUP5 ADD GT ISZERO PUSH2 0x94E JUMPI PUSH2 0x94D PUSH2 0x856 JUMP JUMPDEST JUMPDEST PUSH2 0x959 DUP5 DUP3 DUP6 PUSH2 0x912 JUMP JUMPDEST POP SWAP4 SWAP3 POP POP POP JUMP JUMPDEST PUSH0 DUP3 PUSH1 0x1F DUP4 ADD SLT PUSH2 0x975 JUMPI PUSH2 0x974 PUSH2 0x852 JUMP JUMPDEST JUMPDEST DUP2 CALLDATALOAD PUSH2 0x985 DUP5 DUP3 PUSH1 0x20 DUP7 ADD PUSH2 0x920 JUMP JUMPDEST SWAP2 POP POP SWAP3 SWAP2 POP POP JUMP JUMPDEST PUSH0 DUP2 SWAP1 POP SWAP2 SWAP1 POP JUMP JUMPDEST PUSH2 0x9A0 DUP2 PUSH2 0x98E JUMP JUMPDEST DUP2 EQ PUSH2 0x9AA JUMPI PUSH0 DUP1 REVERT JUMPDEST POP JUMP JUMPDEST PUSH0 DUP2 CALLDATALOAD SWAP1 POP PUSH2 0x9BB DUP2 PUSH2 0x997 JUMP JUMPDEST SWAP3 SWAP2 POP POP JUMP JUMPDEST PUSH0 DUP1 PUSH0 DUP1 PUSH1 0x80 DUP6 DUP8 SUB SLT ISZERO PUSH2 0x9D9 JUMPI PUSH2 0x9D8 PUSH2 0x84A JUMP JUMPDEST JUMPDEST PUSH0 DUP6 ADD CALLDATALOAD PUSH8 0xFFFFFFFFFFFFFFFF DUP2 GT ISZERO PUSH2 0x9F6 JUMPI PUSH2 0x9F5 PUSH2 0x84E JUMP JUMPDEST JUMPDEST PUSH2 0xA02 DUP8 DUP3 DUP9 ADD PUSH2 0x961 JUMP JUMPDEST SWAP5 POP POP PUSH1 0x20 PUSH2 0xA13 DUP8 DUP3 DUP9 ADD PUSH2 0x9AD JUMP JUMPDEST SWAP4 POP POP PUSH1 0x40 PUSH2 0xA24 DUP8 DUP3 DUP9 ADD PUSH2 0x9AD JUMP JUMPDEST SWAP3 POP POP PUSH1 0x60 PUSH2 0xA35 DUP8 DUP3 DUP9 ADD PUSH2 0x9AD JUMP JUMPDEST SWAP2 POP POP SWAP3 SWAP6 SWAP2 SWAP5 POP SWAP3 POP JUMP JUMPDEST PUSH0 PUSH20 0xFFFFFFFFFFFFFFFFFFFFFFFFFFFFFFFFFFFFFFFF DUP3 AND SWAP1 POP SWAP2 SWAP1 POP JUMP JUMPDEST PUSH0 PUSH2 0xA6A DUP3 PUSH2 0xA41 JUMP JUMPDEST SWAP1 POP SWAP2 SWAP1 POP JUMP JUMPDEST PUSH2 0xA7A DUP2 PUSH2 0xA60 JUMP JUMPDEST DUP2 EQ PUSH2 0xA84 JUMPI PUSH0 DUP1 REVERT JUMPDEST POP JUMP JUMPDEST PUSH0 DUP2 CALLDATALOAD SWAP1 POP PUSH2 0xA95 DUP2 PUSH2 0xA71 JUMP JUMPDEST SWAP3 SWAP2 POP POP JUMP JUMPDEST PUSH0 DUP1 PUSH1 0x40 DUP4 DUP6 SUB SLT ISZERO PUSH2 0xAB1 JUMPI PUSH2 0xAB0 PUSH2 0x84A JUMP JUMPDEST JUMPDEST PUSH0 PUSH2 0xABE DUP6 DUP3 DUP7 ADD PUSH2 0x9AD JUMP JUMPDEST SWAP3 POP POP PUSH1 0x20 PUSH2 0xACF DUP6 DUP3 DUP7 ADD PUSH2 0xA87 JUMP JUMPDEST SWAP2 POP POP SWAP3 POP SWAP3 SWAP1 POP JUMP JUMPDEST PUSH2 0xAE2 DUP2 PUSH2 0x98E JUMP JUMPDEST DUP3 MSTORE POP POP JUMP JUMPDEST PUSH0 PUSH1 0x20 DUP3 ADD SWAP1 POP PUSH2 0xAFB PUSH0 DUP4 ADD DUP5 PUSH2 0xAD9 JUMP JUMPDEST SWAP3 SWAP2 POP POP JUMP JUMPDEST PUSH0 PUSH1 0x20 DUP3 DUP5 SUB SLT ISZERO PUSH2 0xB16 JUMPI PUSH2 0xB15 PUSH2 0x84A JUMP JUMPDEST JUMPDEST PUSH0 PUSH2 0xB23 DUP5 DUP3 DUP6 ADD PUSH2 0x9AD JUMP JUMPDEST SWAP2 POP POP SWAP3 SWAP2 POP POP JUMP JUMPDEST PUSH0 DUP2 MLOAD SWAP1 POP SWAP2 SWAP1 POP JUMP JUMPDEST PUSH0 DUP3 DUP3 MSTORE PUSH1 0x20 DUP3 ADD SWAP1 POP SWAP3 SWAP2 POP POP JUMP JUMPDEST DUP3 DUP2 DUP4 MCOPY PUSH0 DUP4 DUP4 ADD MSTORE POP POP POP JUMP JUMPDEST PUSH0 PUSH2 0xB5E DUP3 PUSH2 0xB2C JUMP JUMPDEST PUSH2 0xB68 DUP2 DUP6 PUSH2 0xB36 JUMP JUMPDEST SWAP4 POP PUSH2 0xB78 DUP2 DUP6 PUSH1 0x20 DUP7 ADD PUSH2 0xB46 JUMP JUMPDEST PUSH2 0xB81 DUP2 PUSH2 0x85A JUMP JUMPDEST DUP5 ADD SWAP2 POP POP SWAP3 SWAP2 POP POP JUMP JUMPDEST PUSH2 0xB95 DUP2 PUSH2 0xA60 JUMP JUMPDEST DUP3 MSTORE POP POP JUMP JUMPDEST PUSH0 PUSH1 0xC0 DUP3 ADD SWAP1 POP DUP2 DUP2 SUB PUSH0 DUP4 ADD MSTORE PUSH2 0xBB3 DUP2 DUP10 PUSH2 0xB54 JUMP JUMPDEST SWAP1 POP PUSH2 0xBC2 PUSH1 0x20 DUP4 ADD DUP9 PUSH2 0xAD9 JUMP JUMPDEST PUSH2 0xBCF PUSH1 0x40 DUP4 ADD DUP8 PUSH2 0xAD9 JUMP JUMPDEST PUSH2 0xBDC PUSH1 0x60 DUP4 ADD DUP7 PUSH2 0xAD9 JUMP JUMPDEST PUSH2 0xBE9 PUSH1 0x80 DUP4 ADD DUP6 PUSH2 0xAD9 JUMP JUMPDEST PUSH2 0xBF6 PUSH1 0xA0 DUP4 ADD DUP5 PUSH2 0xB8C JUMP JUMPDEST SWAP8 SWAP7 POP POP POP POP POP POP POP JUMP JUMPDEST PUSH0 DUP1 PUSH1 0x40 DUP4 DUP6 SUB SLT ISZERO PUSH2 0xC17 JUMPI PUSH2 0xC16 PUSH2 0x84A JUMP JUMPDEST JUMPDEST PUSH0 PUSH2 0xC24 DUP6 DUP3 DUP7 ADD PUSH2 0x9AD JUMP JUMPDEST SWAP3 POP POP PUSH1 0x20 PUSH2 0xC35 DUP6 DUP3 DUP7 ADD PUSH2 0x9AD JUMP JUMPDEST SWAP2 POP POP SWAP3 POP SWAP3 SWAP1 POP JUMP JUMPDEST PUSH32 0x44617461206576656E696D656E74756C75692074726562756965207361206669 PUSH0 DUP3 ADD MSTORE PUSH32 0x6520696E20766969746F72000000000000000000000000000000000000000000 PUSH1 0x20 DUP3 ADD MSTORE POP JUMP JUMPDEST PUSH0 PUSH2 0xC99 PUSH1 0x2B DUP4 PUSH2 0xB36 JUMP JUMPDEST SWAP2 POP PUSH2 0xCA4 DUP3 PUSH2 0xC3F JUMP JUMPDEST PUSH1 0x40 DUP3 ADD SWAP1 POP SWAP2 SWAP1 POP JUMP JUMPDEST PUSH0 PUSH1 0x20 DUP3 ADD SWAP1 POP DUP2 DUP2 SUB PUSH0 DUP4 ADD MSTORE PUSH2 0xCC6 DUP2 PUSH2 0xC8D JUMP JUMPDEST SWAP1 POP SWAP2 SWAP1 POP JUMP JUMPDEST PUSH32 0x54726562756965207361206578697374652063656C20707574696E20756E2062 PUSH0 DUP3 ADD MSTORE PUSH32 0x696C657420646973706F6E6962696C0000000000000000000000000000000000 PUSH1 0x20 DUP3 ADD MSTORE POP JUMP JUMPDEST PUSH0 PUSH2 0xD27 PUSH1 0x2F DUP4 PUSH2 0xB36 JUMP JUMPDEST SWAP2 POP PUSH2 0xD32 DUP3 PUSH2 0xCCD JUMP JUMPDEST PUSH1 0x40 DUP3 ADD SWAP1 POP SWAP2 SWAP1 POP JUMP JUMPDEST PUSH0 PUSH1 0x20 DUP3 ADD SWAP1 POP DUP2 DUP2 SUB PUSH0 DUP4 ADD MSTORE PUSH2 0xD54 DUP2 PUSH2 0xD1B JUMP JUMPDEST SWAP1 POP SWAP2 SWAP1 POP JUMP JUMPDEST PUSH32 0x4E487B7100000000000000000000000000000000000000000000000000000000 PUSH0 MSTORE PUSH1 0x11 PUSH1 0x4 MSTORE PUSH1 0x24 PUSH0 REVERT JUMPDEST PUSH0 PUSH2 0xD92 DUP3 PUSH2 0x98E JUMP JUMPDEST SWAP2 POP PUSH32 0xFFFFFFFFFFFFFFFFFFFFFFFFFFFFFFFFFFFFFFFFFFFFFFFFFFFFFFFFFFFFFFFF DUP3 SUB PUSH2 0xDC4 JUMPI PUSH2 0xDC3 PUSH2 0xD5B JUMP JUMPDEST JUMPDEST PUSH1 0x1 DUP3 ADD SWAP1 POP SWAP2 SWAP1 POP JUMP JUMPDEST PUSH32 0x4E487B7100000000000000000000000000000000000000000000000000000000 PUSH0 MSTORE PUSH1 0x22 PUSH1 0x4 MSTORE PUSH1 0x24 PUSH0 REVERT JUMPDEST PUSH0 PUSH1 0x2 DUP3 DIV SWAP1 POP PUSH1 0x1 DUP3 AND DUP1 PUSH2 0xE13 JUMPI PUSH1 0x7F DUP3 AND SWAP2 POP JUMPDEST PUSH1 0x20 DUP3 LT DUP2 SUB PUSH2 0xE26 JUMPI PUSH2 0xE25 PUSH2 0xDCF JUMP JUMPDEST JUMPDEST POP SWAP2 SWAP1 POP JUMP JUMPDEST PUSH0 DUP2 SWAP1 POP DUP2 PUSH0 MSTORE PUSH1 0x20 PUSH0 KECCAK256 SWAP1 POP SWAP2 SWAP1 POP JUMP JUMPDEST PUSH0 PUSH1 0x20 PUSH1 0x1F DUP4 ADD DIV SWAP1 POP SWAP2 SWAP1 POP JUMP JUMPDEST PUSH0 DUP3 DUP3 SHL SWAP1 POP SWAP3 SWAP2 POP POP JUMP JUMPDEST PUSH0 PUSH1 0x8 DUP4 MUL PUSH2 0xE88 PUSH32 0xFFFFFFFFFFFFFFFFFFFFFFFFFFFFFFFFFFFFFFFFFFFFFFFFFFFFFFFFFFFFFFFF DUP3 PUSH2 0xE4D JUMP JUMPDEST PUSH2 0xE92 DUP7 DUP4 PUSH2 0xE4D JUMP JUMPDEST SWAP6 POP DUP1 NOT DUP5 AND SWAP4 POP DUP1 DUP7 AND DUP5 OR SWAP3 POP POP POP SWAP4 SWAP3 POP POP POP JUMP JUMPDEST PUSH0 DUP2 SWAP1 POP SWAP2 SWAP1 POP JUMP JUMPDEST PUSH0 PUSH2 0xECD PUSH2 0xEC8 PUSH2 0xEC3 DUP5 PUSH2 0x98E JUMP JUMPDEST PUSH2 0xEAA JUMP JUMPDEST PUSH2 0x98E JUMP JUMPDEST SWAP1 POP SWAP2 SWAP1 POP JUMP JUMPDEST PUSH0 DUP2 SWAP1 POP SWAP2 SWAP1 POP JUMP JUMPDEST PUSH2 0xEE6 DUP4 PUSH2 0xEB3 JUMP JUMPDEST PUSH2 0xEFA PUSH2 0xEF2 DUP3 PUSH2 0xED4 JUMP JUMPDEST DUP5 DUP5 SLOAD PUSH2 0xE59 JUMP JUMPDEST DUP3 SSTORE POP POP POP POP JUMP JUMPDEST PUSH0 SWAP1 JUMP JUMPDEST PUSH2 0xF0E PUSH2 0xF02 JUMP JUMPDEST PUSH2 0xF19 DUP2 DUP5 DUP5 PUSH2 0xEDD JUMP JUMPDEST POP POP POP JUMP JUMPDEST JUMPDEST DUP2 DUP2 LT ISZERO PUSH2 0xF3C JUMPI PUSH2 0xF31 PUSH0 DUP3 PUSH2 0xF06 JUMP JUMPDEST PUSH1 0x1 DUP2 ADD SWAP1 POP PUSH2 0xF1F JUMP JUMPDEST POP POP JUMP JUMPDEST PUSH1 0x1F DUP3 GT ISZERO PUSH2 0xF81 JUMPI PUSH2 0xF52 DUP2 PUSH2 0xE2C JUMP JUMPDEST PUSH2 0xF5B DUP5 PUSH2 0xE3E JUMP JUMPDEST DUP2 ADD PUSH1 0x20 DUP6 LT ISZERO PUSH2 0xF6A JUMPI DUP2 SWAP1 POP JUMPDEST PUSH2 0xF7E PUSH2 0xF76 DUP6 PUSH2 0xE3E JUMP JUMPDEST DUP4 ADD DUP3 PUSH2 0xF1E JUMP JUMPDEST POP POP JUMPDEST POP POP POP JUMP JUMPDEST PUSH0 DUP3 DUP3 SHR SWAP1 POP SWAP3 SWAP2 POP POP JUMP JUMPDEST PUSH0 PUSH2 0xFA1 PUSH0 NOT DUP5 PUSH1 0x8 MUL PUSH2 0xF86 JUMP JUMPDEST NOT DUP1 DUP4 AND SWAP2 POP POP SWAP3 SWAP2 POP POP JUMP JUMPDEST PUSH0 PUSH2 0xFB9 DUP4 DUP4 PUSH2 0xF92 JUMP JUMPDEST SWAP2 POP DUP3 PUSH1 0x2 MUL DUP3 OR SWAP1 POP SWAP3 SWAP2 POP POP JUMP JUMPDEST PUSH2 0xFD2 DUP3 PUSH2 0xB2C JUMP JUMPDEST PUSH8 0xFFFFFFFFFFFFFFFF DUP2 GT ISZERO PUSH2 0xFEB JUMPI PUSH2 0xFEA PUSH2 0x86A JUMP JUMPDEST JUMPDEST PUSH2 0xFF5 DUP3 SLOAD PUSH2 0xDFC JUMP JUMPDEST PUSH2 0x1000 DUP3 DUP3 DUP6 PUSH2 0xF40 JUMP JUMPDEST PUSH0 PUSH1 0x20 SWAP1 POP PUSH1 0x1F DUP4 GT PUSH1 0x1 DUP2 EQ PUSH2 0x1031 JUMPI PUSH0 DUP5 ISZERO PUSH2 0x101F JUMPI DUP3 DUP8 ADD MLOAD SWAP1 POP JUMPDEST PUSH2 0x1029 DUP6 DUP3 PUSH2 0xFAE JUMP JUMPDEST DUP7 SSTORE POP PUSH2 0x1090 JUMP JUMPDEST PUSH1 0x1F NOT DUP5 AND PUSH2 0x103F DUP7 PUSH2 0xE2C JUMP JUMPDEST PUSH0 JUMPDEST DUP3 DUP2 LT ISZERO PUSH2 0x1066 JUMPI DUP5 DUP10 ADD MLOAD DUP3 SSTORE PUSH1 0x1 DUP3 ADD SWAP2 POP PUSH1 0x20 DUP6 ADD SWAP5 POP PUSH1 0x20 DUP2 ADD SWAP1 POP PUSH2 0x1041 JUMP JUMPDEST DUP7 DUP4 LT ISZERO PUSH2 0x1083 JUMPI DUP5 DUP10 ADD MLOAD PUSH2 0x107F PUSH1 0x1F DUP10 AND DUP3 PUSH2 0xF92 JUMP JUMPDEST DUP4 SSTORE POP JUMPDEST PUSH1 0x1 PUSH1 0x2 DUP9 MUL ADD DUP9 SSTORE POP POP POP JUMPDEST POP POP POP POP POP POP JUMP JUMPDEST PUSH0 PUSH1 0xC0 DUP3 ADD SWAP1 POP PUSH2 0x10AB PUSH0 DUP4 ADD DUP10 PUSH2 0xAD9 JUMP JUMPDEST DUP2 DUP2 SUB PUSH1 0x20 DUP4 ADD MSTORE PUSH2 0x10BD DUP2 DUP9 PUSH2 0xB54 JUMP JUMPDEST SWAP1 POP PUSH2 0x10CC PUSH1 0x40 DUP4 ADD DUP8 PUSH2 0xAD9 JUMP JUMPDEST PUSH2 0x10D9 PUSH1 0x60 DUP4 ADD DUP7 PUSH2 0xAD9 JUMP JUMPDEST PUSH2 0x10E6 PUSH1 0x80 DUP4 ADD DUP6 PUSH2 0xAD9 JUMP JUMPDEST PUSH2 0x10F3 PUSH1 0xA0 DUP4 ADD DUP5 PUSH2 0xB8C JUMP JUMPDEST SWAP8 SWAP7 POP POP POP POP POP POP POP JUMP JUMPDEST PUSH32 0x446F6172206F7267616E697A61746F72756C20706F6174652065786563757461 PUSH0 DUP3 ADD MSTORE PUSH32 0x20616365617374612066756E6374696500000000000000000000000000000000 PUSH1 0x20 DUP3 ADD MSTORE POP JUMP JUMPDEST PUSH0 PUSH2 0x1158 PUSH1 0x30 DUP4 PUSH2 0xB36 JUMP JUMPDEST SWAP2 POP PUSH2 0x1163 DUP3 PUSH2 0x10FE JUMP JUMPDEST PUSH1 0x40 DUP3 ADD SWAP1 POP SWAP2 SWAP1 POP JUMP JUMPDEST PUSH0 PUSH1 0x20 DUP3 ADD SWAP1 POP DUP2 DUP2 SUB PUSH0 DUP4 ADD MSTORE PUSH2 0x1185 DUP2 PUSH2 0x114C JUMP JUMPDEST SWAP1 POP SWAP2 SWAP1 POP JUMP JUMPDEST PUSH32 0x4576656E696D656E74756C206E7520612061767574206C6F6320696E63610000 PUSH0 DUP3 ADD MSTORE POP JUMP JUMPDEST PUSH0 PUSH2 0x11C0 PUSH1 0x1E DUP4 PUSH2 0xB36 JUMP JUMPDEST SWAP2 POP PUSH2 0x11CB DUP3 PUSH2 0x118C JUMP JUMPDEST PUSH1 0x20 DUP3 ADD SWAP1 POP SWAP2 SWAP1 POP JUMP JUMPDEST PUSH0 PUSH1 0x20 DUP3 ADD SWAP1 POP DUP2 DUP2 SUB PUSH0 DUP4 ADD MSTORE PUSH2 0x11ED DUP2 PUSH2 0x11B4 JUMP JUMPDEST SWAP1 POP SWAP2 SWAP1 POP JUMP JUMPDEST PUSH32 0x4576656E696D656E74756C20612061767574206C6F632064656A610000000000 PUSH0 DUP3 ADD MSTORE POP JUMP JUMPDEST PUSH0 PUSH2 0x1228 PUSH1 0x1B DUP4 PUSH2 0xB36 JUMP JUMPDEST SWAP2 POP PUSH2 0x1233 DUP3 PUSH2 0x11F4 JUMP JUMPDEST PUSH1 0x20 DUP3 ADD SWAP1 POP SWAP2 SWAP1 POP JUMP JUMPDEST PUSH0 PUSH1 0x20 DUP3 ADD SWAP1 POP DUP2 DUP2 SUB PUSH0 DUP4 ADD MSTORE PUSH2 0x1255 DUP2 PUSH2 0x121C JUMP JUMPDEST SWAP1 POP SWAP2 SWAP1 POP JUMP JUMPDEST PUSH32 0x547265627569652073612063756D706572692063656C20707574696E20756E20 PUSH0 DUP3 ADD MSTORE PUSH32 0x62696C6574000000000000000000000000000000000000000000000000000000 PUSH1 0x20 DUP3 ADD MSTORE POP JUMP JUMPDEST PUSH0 PUSH2 0x12B6 PUSH1 0x25 DUP4 PUSH2 0xB36 JUMP JUMPDEST SWAP2 POP PUSH2 0x12C1 DUP3 PUSH2 0x125C JUMP JUMPDEST PUSH1 0x40 DUP3 ADD SWAP1 POP SWAP2 SWAP1 POP JUMP JUMPDEST PUSH0 PUSH1 0x20 DUP3 ADD SWAP1 POP DUP2 DUP2 SUB PUSH0 DUP4 ADD MSTORE PUSH2 0x12E3 DUP2 PUSH2 0x12AA JUMP JUMPDEST SWAP1 POP SWAP2 SWAP1 POP JUMP JUMPDEST PUSH0 PUSH2 0x12F4 DUP3 PUSH2 0x98E JUMP JUMPDEST SWAP2 POP PUSH2 0x12FF DUP4 PUSH2 0x98E JUMP JUMPDEST SWAP3 POP DUP3 DUP3 ADD SWAP1 POP DUP1 DUP3 GT ISZERO PUSH2 0x1317 JUMPI PUSH2 0x1316 PUSH2 0xD5B JUMP JUMPDEST JUMPDEST SWAP3 SWAP2 POP POP JUMP JUMPDEST PUSH32 0x4E752073756E7420737566696369656E74652062696C65746520646973706F6E PUSH0 DUP3 ADD MSTORE PUSH32 0x6962696C65000000000000000000000000000000000000000000000000000000 PUSH1 0x20 DUP3 ADD MSTORE POP JUMP JUMPDEST PUSH0 PUSH2 0x1377 PUSH1 0x25 DUP4 PUSH2 0xB36 JUMP JUMPDEST SWAP2 POP PUSH2 0x1382 DUP3 PUSH2 0x131D JUMP JUMPDEST PUSH1 0x40 DUP3 ADD SWAP1 POP SWAP2 SWAP1 POP JUMP JUMPDEST PUSH0 PUSH1 0x20 DUP3 ADD SWAP1 POP DUP2 DUP2 SUB PUSH0 DUP4 ADD MSTORE PUSH2 0x13A4 DUP2 PUSH2 0x136B JUMP JUMPDEST SWAP1 POP SWAP2 SWAP1 POP JUMP JUMPDEST PUSH0 PUSH2 0x13B5 DUP3 PUSH2 0x98E JUMP JUMPDEST SWAP2 POP PUSH2 0x13C0 DUP4 PUSH2 0x98E JUMP JUMPDEST SWAP3 POP DUP3 DUP3 MUL PUSH2 0x13CE DUP2 PUSH2 0x98E JUMP JUMPDEST SWAP2 POP DUP3 DUP3 DIV DUP5 EQ DUP4 ISZERO OR PUSH2 0x13E5 JUMPI PUSH2 0x13E4 PUSH2 0xD5B JUMP JUMPDEST JUMPDEST POP SWAP3 SWAP2 POP POP JUMP JUMPDEST PUSH32 0x56616C6F61726561207472696D697361206E75206573746520636F7265637461 PUSH0 DUP3 ADD MSTORE POP JUMP JUMPDEST PUSH0 PUSH2 0x1420 PUSH1 0x20 DUP4 PUSH2 0xB36 JUMP JUMPDEST SWAP2 POP PUSH2 0x142B DUP3 PUSH2 0x13EC JUMP JUMPDEST PUSH1 0x20 DUP3 ADD SWAP1 POP SWAP2 SWAP1 POP JUMP JUMPDEST PUSH0 PUSH1 0x20 DUP3 ADD SWAP1 POP DUP2 DUP2 SUB PUSH0 DUP4 ADD MSTORE PUSH2 0x144D DUP2 PUSH2 0x1414 JUMP JUMPDEST SWAP1 POP SWAP2 SWAP1 POP JUMP JUMPDEST PUSH0 PUSH1 0x60 DUP3 ADD SWAP1 POP PUSH2 0x1467 PUSH0 DUP4 ADD DUP7 PUSH2 0xAD9 JUMP JUMPDEST PUSH2 0x1474 PUSH1 0x20 DUP4 ADD DUP6 PUSH2 0xB8C JUMP JUMPDEST PUSH2 0x1481 PUSH1 0x40 DUP4 ADD DUP5 PUSH2 0xAD9 JUMP JUMPDEST SWAP5 SWAP4 POP POP POP POP JUMP INVALID LOG2 PUSH5 0x6970667358 0x22 SLT KECCAK256 0x25 PUSH8 0xF3A2E2EBDBCD535B 0xD2 0xE0 0xC SWAP6 0xED DUP11 0x4C SWAP2 SGT PUSH8 0xD30D9EFE48852D38 0xC5 0xB5 SSTORE BYTE PUSH5 0x736F6C6343 STOP ADDMOD BYTE STOP CALLER "
		},
		"gasEstimates": {
			"creation": {
				"codeDepositCost": "1062200",
				"executionCost": "1098",
				"totalCost": "1063298"
			},
			"external": {
				"buyTickets(uint256,uint256)": "infinite",
				"createEvent(string,uint256,uint256,uint256)": "infinite",
				"eventCount()": "2447",
				"events(uint256)": "infinite",
				"tickets(uint256,address)": "infinite",
				"ticketsOf(uint256,address)": "infinite",
				"withdrawFunds(uint256)": "infinite"
			}
		},
		"methodIdentifiers": {
			"buyTickets(uint256,uint256)": "8627df46",
			"createEvent(string,uint256,uint256,uint256)": "0374ab0b",
			"eventCount()": "71be2e4a",
			"events(uint256)": "0b791430",
			"tickets(uint256,address)": "b99d6e29",
			"ticketsOf(uint256,address)": "09c79735",
			"withdrawFunds(uint256)": "155dd5ee"
		}
	},
	"abi": [
		{
			"anonymous": false,
			"inputs": [
				{
					"indexed": false,
					"internalType": "uint256",
					"name": "eventId",
					"type": "uint256"
				},
				{
					"indexed": false,
					"internalType": "string",
					"name": "name",
					"type": "string"
				},
				{
					"indexed": false,
					"internalType": "uint256",
					"name": "date",
					"type": "uint256"
				},
				{
					"indexed": false,
					"internalType": "uint256",
					"name": "price",
					"type": "uint256"
				},
				{
					"indexed": false,
					"internalType": "uint256",
					"name": "totalTickets",
					"type": "uint256"
				},
				{
					"indexed": false,
					"internalType": "address",
					"name": "organizer",
					"type": "address"
				}
			],
			"name": "EventCreated",
			"type": "event"
		},
		{
			"anonymous": false,
			"inputs": [
				{
					"indexed": false,
					"internalType": "uint256",
					"name": "eventId",
					"type": "uint256"
				},
				{
					"indexed": false,
					"internalType": "address",
					"name": "buyer",
					"type": "address"
				},
				{
					"indexed": false,
					"internalType": "uint256",
					"name": "quantity",
					"type": "uint256"
				}
			],
			"name": "TicketPurchased",
			"type": "event"
		},
		{
			"inputs": [
				{
					"internalType": "uint256",
					"name": "_eventId",
					"type": "uint256"
				},
				{
					"internalType": "uint256",
					"name": "_quantity",
					"type": "uint256"
				}
			],
			"name": "buyTickets",
			"outputs": [],
			"stateMutability": "payable",
			"type": "function"
		},
		{
			"inputs": [
				{
					"internalType": "string",
					"name": "_name",
					"type": "string"
				},
				{
					"internalType": "uint256",
					"name": "_date",
					"type": "uint256"
				},
				{
					"internalType": "uint256",
					"name": "_price",
					"type": "uint256"
				},
				{
					"internalType": "uint256",
					"name": "_totalTickets",
					"type": "uint256"
				}
			],
			"name": "createEvent",
			"outputs": [],
			"stateMutability": "nonpayable",
			"type": "function"
		},
		{
			"inputs": [],
			"name": "eventCount",
			"outputs": [
				{
					"internalType": "uint256",
					"name": "",
					"type": "uint256"
				}
			],
			"stateMutability": "view",
			"type": "function"
		},
		{
			"inputs": [
				{
					"internalType": "uint256",
					"name": "",
					"type": "uint256"
				}
			],
			"name": "events",
			"outputs": [
				{
					"internalType": "string",
					"name": "name",
					"type": "string"
				},
				{
					"internalType": "uint256",
					"name": "date",
					"type": "uint256"
				},
				{
					"internalType": "uint256",
					"name": "price",
					"type": "uint256"
				},
				{
					"internalType": "uint256",
					"name": "totalTickets",
					"type": "uint256"
				},
				{
					"internalType": "uint256",
					"name": "ticketsSold",
					"type": "uint256"
				},
				{
					"internalType": "address",
					"name": "organizer",
					"type": "address"
				}
			],
			"stateMutability": "view",
			"type": "function"
		},
		{
			"inputs": [
				{
					"internalType": "uint256",
					"name": "",
					"type": "uint256"
				},
				{
					"internalType": "address",
					"name": "",
					"type": "address"
				}
			],
			"name": "tickets",
			"outputs": [
				{
					"internalType": "uint256",
					"name": "",
					"type": "uint256"
				}
			],
			"stateMutability": "view",
			"type": "function"
		},
		{
			"inputs": [
				{
					"internalType": "uint256",
					"name": "_eventId",
					"type": "uint256"
				},
				{
					"internalType": "address",
					"name": "_owner",
					"type": "address"
				}
			],
			"name": "ticketsOf",
			"outputs": [
				{
					"internalType": "uint256",
					"name": "",
					"type": "uint256"
				}
			],
			"stateMutability": "view",
			"type": "function"
		},
		{
			"inputs": [
				{
					"internalType": "uint256",
					"name": "_eventId",
					"type": "uint256"
				}
			],
			"name": "withdrawFunds",
			"outputs": [],
			"stateMutability": "nonpayable",
			"type": "function"
		}
	]
}